:020000040800F2
:10000000D012002015020008110F0008050D00088D
:1000100000000000000000000000000000000000E0
:100020000000000000000000000000003511000882
:1000300000000000000000009B010008F51100080E
:1000400027020008270200082702000827020008EC
:1000500027020008270200082702000827020008DC
:10006000AD0A00082702000827020008270200083E
:1000700027020008270200082702000827020008BC
:1000800027020008270200082702000827020008AC
:10009000270200082702000827020008270200089C
:1000A000270200082702000827020008270200088C
:1000B0000913000827020008270200082702000889
:1000C00000F002F800F03EF80CA030C80838241800
:1000D0002D18A246671EAB4654465D46AC4201D180
:1000E00000F030F87E460F3E0FCCB6460126334274
:1000F00000D0FB1AA246AB4633431847141F00003A
:10010000341F0000103A02D378C878C1FAD85207D9
:1001100001D330C830C101D504680C6070470000BD
:100120000023002400250026103A01D378C1FBD813
:10013000520700D330C100D50B6070471FB51FBDFB
:1001400010B510BD00F05BF91146FFF7F7FF01F0A5
:10015000A1FA00F073F903B4FFF7F2FF03BC00F05B
:1001600079F90000084B19680868203080F3098885
:10017000022080F31488BFF36F8F3FBCAE4608BCEB
:1001800004BC62B61847000028000020EFF310807E
:1001900072B6704780F310887047EFF309800E4BFA
:1001A0001A6820381060F0C044464D4656465F46F7
:1001B000F0C008B572B601F095FD62B60CBC1168CE
:1001C00008681030F0C8A046A946B246BB4680F386
:1001D00009882038F0C818472800002070B5054667
:1001E0000C46164602E00FCC0FC5103E102EFAD278
:1001F000082E02D303CC03C5083E042E07D301CC3E
:1002000001C5361F03E021782970641C6D1C761E21
:10021000F9D270BD0748804707480047FEE7FEE770
:10022000FEE7FEE7FEE7FEE704480549054A064B00
:100230007047000091120008C1000008D00C002097
:10024000D0120020D00E0020D00E0020D2B210B567
:1002500013029A1813049A1800F00EF810BD01E06A
:1002600004C0091F0429FBD28B0701D50280801C22
:10027000C90700D00270704700290BD0C30702D015
:100280000270401C491E022904D3830702D5028054
:10029000801C891EE3E70022EEE70022DFE7002250
:1002A00003098B422CD3030A8B4211D300239C46B3
:1002B0004EE003460B433CD4002243088B4231D32B
:1002C00003098B421CD3030A8B4201D394463FE0BF
:1002D000C3098B4201D3CB01C01A524183098B421F
:1002E00001D38B01C01A524143098B4201D34B0108
:1002F000C01A524103098B4201D30B01C01A52416B
:10030000C3088B4201D3CB00C01A524183088B42F1
:1003100001D38B00C01A524143088B4201D34B00DA
:10032000C01A5241411A00D201465241104670474C
:100330005DE0CA0F00D04942031000D34042534051
:1003400000229C4603098B422DD3030A8B4212D311
:10035000FC22890112BA030A8B420CD38901921143
:100360008B4208D3890192118B4204D389013AD080
:10037000921100E08909C3098B4201D3CB01C01A55
:10038000524183098B4201D38B01C01A5241430968
:100390008B4201D34B01C01A524103098B4201D356
:1003A0000B01C01A5241C3088B4201D3CB00C01AC3
:1003B000524183088B4201D38B00C01A5241D9D2DB
:1003C00043088B4201D34B00C01A5241411A00D25C
:1003D0000146634652415B10104601D34042002B58
:1003E00000D54942704763465B1000D3404201B5D7
:1003F0000020C046C04602BD704770477047754632
:1004000000F024F8AE46050069465346C008C00017
:10041000854618B020B5FFF707FF60BC00274908E4
:10042000B6460026C0C5C0C5C0C5C0C5C0C5C0C58C
:10043000C0C5C0C5403D49008D46704710B5044653
:10044000C046C0462046FFF786FE10BD00487047F4
:10045000700C002001491820ABBEFEE72600020008
:100460007047000000B5012187B0084600F0C4FDC8
:100470000121042000F0CCFD0121080300F0BCFDA7
:10048000012000F0D1FD0021084600F09FFD07206B
:1004900000F0A8FD684600F019FC0220009003203F
:1004A00001906946034800F06FFB00F005F807B0C3
:1004B00000BD000000080140F8B5344E304600F0A1
:1004C00071FA3449324808603348002401250A1D76
:1004D00031C20C6128024C6188618000C861202013
:1004E000086200028C624862304600F0BDFA274F75
:1004F0000123083F32463946002000F0D3FA01219B
:10050000304600F09DFA23480721103805704570E9
:100510008460490441601E4C05730146503C2046EE
:1005200000F0ACF8012206231146204600F039F80D
:100530000121204600F07FF80121204600F071F8EB
:100540002021204600F092F80028F9D040212046D2
:1005500000F08CF80028F9D10121204600F075F850
:100560000221204600F07BF80028F9D00221204625
:1005700000F014F83946032000F06EFA0028F9D094
:100580003946032000F00CFAF8BD000008000240D4
:10059000500802405401002010000020C9430160AF
:1005A000704770B50F248D000F2907D9C668403DEC
:1005B000AC40A643AB401E43C6600FE0072907D9F5
:1005C0000669203DAC40A643AB401E43066105E0F2
:1005D0004669AC40A643AB401E4346611F23072A31
:1005E00009D2846B521E9500521993409C4391404E
:1005F0000C43846370BD0D2A09D2446BD21F950051
:10060000521993409C4391400C43446370BD046B6A
:100610000D3A9500521993409C4391400C4304635A
:1006200070BD0029816802D00122114301E0490810
:10063000490081607047FF2201320029816801D0A2
:10064000114300E0914381607047052212050029A3
:10065000816801D0114300E09143816070470246F8
:10066000126800200A4200D0012070470246526DF5
:1006700000200A4200D001207047000010B54268F7
:10068000FF2301339A430B781B02134343608368B3
:100690000A4A4C6813408A6822434C7864001C4321
:1006A00022438260026B097B0F231B05491E09064A
:1006B0009A4309091143016310BD0000FDF7F1FFE2
:1006C0007047000010B50221014800F0A3FB10BDE7
:1006D000000C0140704770477047000010B5802142
:1006E000014800F097FB10BD000C014070477047B7
:1006F000072903D0890008188262704700218B0007
:100700001B18491CC9B29A620729F8D37047000028
:10071000FFB50C46054681B0164650212046FFF72E
:10072000BCFD201D202100272A780270401C6D1C72
:10073000002A24D0491EF7D125462035992028715A
:100740000920A871266068790499800880008907CB
:10075000890F08436871B0478007010F6879F32259
:100760001040084368714A20075506484168E16413
:10077000446000F0E1FC05B0F0BD0770401C491E6C
:10078000FBD1D9E714000020F8B506460068804781
:1007900034462034617935460A07920F00274035E8
:1007A000824225D0AA7A521CD2B2AA72022A1FD340
:1007B000F32280071140000F01436171AF7220796D
:1007C0000107090F092904D0022902D0010704D02A
:1007D0000EE00009000120710AE039490A78002A78
:1007E00020D0000900010F70401C20710420A0716E
:1007F00020790107090F1FD001293ED002293BD1E2
:10080000697A491CC9B269720F2935D399202071C0
:10081000000931D06F72B16A002901D03046884793
:1008200009204BE000090001401C2071F16A0029F9
:10083000DED030468847DBE7607901078007890F03
:10084000800F814218D1A771E87A401CC0B2E872CB
:10085000322811D31A4F3878002808D1716B00293B
:1008600001D030468847012038700420A071E87A12
:10087000FF2801D13220E872F8BDA17900290BD000
:100880000429F9D1B16B002901D0304688470C49C1
:10089000EF720F70492011E0697A0F2902D801091F
:1008A000022903D06F72EF72222007E00220A071AC
:1008B000316B002901D03046884799202071F8BD5E
:1008C0001400002010B500231F4A204920A0FFF784
:1008D0001FFF214A00211D48FFF70AFF1F4A02217E
:1008E0001A48FFF705FF1E4A03211848FFF700FFCB
:1008F0001C4A04211548FFF7FBFE144900231A4A3D
:1009000050311AA0FFF704FF10481A4A0021503056
:10091000FFF7EEFE0D48184A02215030FFF7E8FEBF
:100920000A48164A03215030FFF7E2FE0748144AEE
:1009300004215030FFF7DCFE044800F0E0F90348E2
:10094000503000F0DCF910BD1511000880000020C7
:10095000427574746F6E3100C5060008C106000848
:10096000D5060008D70600082511000842757474E2
:100970006F6E3200DD060008D9060008ED0600089B
:10098000EF06000810B50548446803E02046FFF76D
:10099000FBFEE46C002CF9D110BD00001400002017
:1009A000486070470168244A1140016000210160DD
:1009B00041608160C1602149204A0839904202D1DA
:1009C00048680F2205E01D4A1432904204D148685D
:1009D000F022104348607047184A2832904203D1F1
:1009E00048680F221202F4E7144A3C32904203D1C5
:1009F00048680F221203ECE7104A5032904203D1AC
:100A000048680F221204E4E70C4A6432904203D192
:100A100048680F221205DCE7084A7832904203D179
:100A200048680F221206D4E7044A8C329042D2D191
:100A300048680F221207CCE7FEFF000008000240C2
:100A40000029016802D00122114301E0014A11404E
:100A500001607047FEFF0000024609680020114255
:100A600000D001207047000030B503680C4A0C6AC2
:100A700013408A684D6922430C692C4322438C69D8
:100A80002243CC6922434C6A22438C6A22431A4394
:100A90000260CA6842600A6882604968C16030BD0D
:100AA0000F80FFFF002B00D01061704710B5202091
:100AB00000F012F8002806D04021034800F0AAF9FF
:100AC000202000F003F810BD000C014001494861EE
:100AD0007047000000040140054A014613680020E9
:100AE00052690B400A4202D0002B00D0012070470F
:100AF0000004014010B5837918490268002B26D004
:100B00000B6893430B604A6803689A434A60027912
:100B1000521813680468234313608A6803689A4371
:100B20008A60CA6803689A43CA604279102A05D06D
:100B300051180A68006802430A6010BD8A68036899
:100B40001A438A60CA6800680243CA6010BD00790F
:100B5000401801689143016010BD0000000401408D
:100B60008B08084A10B59B009A1893688907090FEB
:100B70000F248C40A34393609368884003439360A1
:100B800010BD000000000140F0B500238BE00124FF
:100B90009C4022407ED04D68022D01D0122D0ED1F6
:100BA000DD08AD002D18AC462D6A5E07F60E0F2746
:100BB000B740BD434F69B7402F4365462F624E682B
:100BC000012E05D0112E03D0022E01D0122E06D1F7
:100BD0004568F606F60FA5439E402E43466007681B
:100BE0005E000325B540AC46AF430D79AD07AD0FB0
:100BF000B5403D430560C7686546AF438D68B54065
:100C00003D43C5608568CE68A5439E402E438660FF
:100C1000C56AA5430C699C402C43C4624C68E4003F
:100C200040D59D08234CAD002F19BC689D072E0FA1
:100C30000F25B540AC43204DA84201D100250FE05F
:100C40001E4DA84201D101250AE01D4DA84201D147
:100C5000022505E01B4DA84201D1032500E0052532
:100C6000B5402543BD60184C25684E689543F60392
:100C700000D51543256065684E689543B60300D5D9
:100C800015436560A5684E689543F60200D5154387
:100C9000A56000E006E0E5684E689543B60200D521
:100CA0001543E5605B1C0A681446DC4000D06EE723
:100CB000F0BD00000000014000080140000C0140B0
:100CC000001001400014014000040140054901608A
:100CD000002242600F218260416101210261C160F6
:100CE00070470000FFFF00000246126900200A4220
:100CF00000D00120704742694A404261704720306D
:100D000080797047FEE7000010B52021014800F00F
:100D100003F810BD0008014030B50446214889B0F1
:100D20000D46844202D10121052016E01E4884426E
:100D300002D10121092010E01C48844202D1012186
:100D400011200AE01A48844202D10121212004E046
:100D50001848844223D10121812000F059F903A8C9
:100D6000FFF7B4FF0395012503A920460595FFF77A
:100D70000BFF05210020FFF7F3FE2020009000214B
:100D8000684601710C2141718571FFF7B3FE08219E
:100D9000684601724572857202A800F0BBF809B07E
:100DA00030BD000000080140000C0140001001406F
:100DB00000140140001C014010B5C221014800F0A0
:100DC0002DF810BD000C0140064D074CFFF7DAFD71
:100DD00010212846FFF788FF2070142000F0BCFC8B
:100DE000F4E7000000080140040000207D24E40036
:100DF000142103A000F038FB204600F0ADFCF7E71B
:100E00004C45445F54687265616432206F6B2121E8
:100E10000D0A000010B5FFF76EFF10BD30B5044697
:100E2000164887B00D46844202D10121042016E005
:100E30001348844202D10121082010E01148844265
:100E400002D1012110200AE00F48844202D1012181
:100E5000202004E00D4884420DD10121802000F0C3
:100E6000D7F86846FFF732FF0120019069460095E8
:100E70002046FFF789FE07B030BD000000080140A2
:100E8000000C01400010014000140140001C014012
:100E900070B586B00121042000F0BAF801210820C5
:100EA00000F0B6F80121102000F0B2F80121202056
:100EB00000F0AEF80121802000F0AAF80121052001
:100EC00000F0A6F86846FFF701FF01208003012526
:100ED0000D4E00900295694601953046FFF754FE8D
:100EE0006803009002200024029069460194304675
:100EF000FFF74AFE50206A4631C269460348FFF7B1
:100F000043FE06B070BD0000001001400008014023
:100F10007047000010B500228256FF21D3B29B0714
:100F2000DC0E4378A1409B071B0EA340002A0BDA7E
:100F30001207120F083A9408104AA400A418E26994
:100F40008A431A43E26107E094080D4AA400A218FC
:100F500014688C431C431460827801210078002AB5
:100F600004D0C006C00E8140064804E0C006C00E92
:100F7000814004488030016010BD000000ED00E0B9
:100F800000E400E000E100E08307FF22DB0E9A406E
:100F90008907090E994000280BDA0007000F08386E
:100FA000830808489B001818C36993430B43C36127
:100FB0007047830804489B001B1818689043084337
:100FC0001860704700ED00E000E400E010B5044B4D
:100FD000DA6A3F24A402A24302430A43DA6210BD44
:100FE00000100240034AD16A090909010143D16294
:100FF0007047000000100240044A0029516901D0E6
:10100000014300E08143516170470000001002403D
:10101000044A0029916901D0014300E081439161B4
:10102000704700000010024005490128086803D0FD
:10103000400840000860704701221043FAE70000B2
:101040000010024070B52E4D04466868696803229E
:1010500012056E681140920016406A680003000F86
:10106000284AC01C090D5043491CFFF718F9B10D5F
:10107000491CFFF714F9696806462348012201401C
:1010800092038B1A1F48914207D004DD082B33D0FE
:10109000934200D11D48206000E026606868000689
:1010A000000F082800D2002019490A5C2068D040AF
:1010B00060606A6803465205520F8A5CD340A360A1
:1010C0006A689204520F895C0246CA40E260E96A8B
:1010D0000F4A0907090F1032515CFFF7E0F8606111
:1010E000E86A0B490006000F40002031095A3046DB
:1010F000FFF7D5F8206170BD0120C003CBE70000E9
:101100000010024000127A0008C000003075000094
:10111000C01F000810B510210148FFF7E5FD10BD04
:101120000008014010B540210148FFF7DDFD10BD6A
:1011300000080140704700000348406800E0C06CB0
:101140000028FCD1704700001400002010B525488D
:101150000021026801231A43026005231B02026872
:10116000491C9207D20F002A01D19942F7D1016898
:101170008907C90F35D01C490A68920892000A6095
:101180000B68022213430B604168416043680321EE
:1011900089058B4343604368540523434360436898
:1011A0008B4343604168114B194041604168032300
:1011B0001B04194341600168D305194301600168AC
:1011C0008901FCD541688908890041604168114363
:1011D0004160074B01229203416819409142FBD1C3
:1011E00010BDFEE70010024000200240FFFFC0FEDD
:1011F00008C0000010B503480168491C016000F0F8
:10120000B8FA10BD0000002070B51B4D68681B497E
:10121000012208409203831A19491A4C904206D0C1
:1012200003DD082B1AD0934224D0216019E06868AE
:101230006968032212056E6811409200164000038F
:10124000000F0F4AC01C5043090D491C2060FFF7D6
:1012500026F8B10D491CFFF722F801E00120C00378
:101260002060686808490006000F085C2168C140DA
:10127000216070BD0548F3E70010024008C000007F
:1012800000127A0024000020B01F00083075000012
:1012900010B5174801680122114301604168154AE1
:1012A000114041600168144A114001600168012247
:1012B0009204914301604168104A11404160072146
:1012C000C902C162BF21090481600D490A68102367
:1012D0001A430A600268F8218A4302600368094AD7
:1012E0005268D2080A4013430360FFF72FFF10BD76
:1012F000001002400000FF21FFFFF6FEFFFF00FE8E
:101300000020024000180040F8B5284E284D314614
:10131000284600F04EF9274C002807D031462846D1
:1013200000F014F9284600F0ADF92071224F28464C
:10133000394600F03EF9002810D020492078095C99
:10134000401C2070284600F0A1F92078617888427E
:1013500004D100223946284600F0FEF8184D3146E7
:10136000284600F026F9002807D03146284600F02C
:10137000EDF8284600F086F920713946284600F03D
:1013800018F9002810D00F49A078095C401CA07003
:10139000284600F07BF9A078E178884204D1002249
:1013A0003946284600F0D8F8F8BD000025050000B1
:1013B000003801401C0000202707000080010020A9
:1013C000004400408002002070B505468CB0012129
:1013D0000420FFF71DFE01218803FFF719FE01A875
:1013E000FFF774FC01204002019002201A4E0424F1
:1013F000029001A906943046FFF7C6FB200206942E
:10140000019001A93046FFF7BFFB0795002468460D
:1014100004844484848404850C21C1840F4D07A96D
:10142000284600F0E5F801220D49284600F094F81E
:1014300001220C49284600F08FF80121284600F0CF
:10144000A3F81C2168460170447001218170FFF7E8
:1014500061FD0CB070BD0000000801400038014083
:10146000250500002707000070B500220C4D0D4C2B
:1014700006E06378865CEE545B1C521C6370D2B24B
:101480008A42F6D3084C8021204600F08BF80028D1
:10149000F9D001220549204600F05EF870BD000039
:1014A000800100201C0000200038014027070000B8
:1014B00070B505468CB001210420FFF7A9FD01217C
:1014C0004804FFF7A5FD01A8FFF700FC0424022053
:1014D0001A4E0194029001A906943046FFF754FB7E
:1014E00008200694019001A93046FFF74DFB0795AF
:1014F0000024684604844484848404850C21C184C7
:101500000F4D07A9284600F073F801220D4928461F
:1015100000F022F801220C49284600F01DF80121B4
:10152000284600F031F81C21684601704470012102
:101530008170FFF7EFFC0CB070BD000000080140A7
:101540000044004025050000270700000A0A012189
:101550009140C9430180704710B50B06CC065B0F64
:10156000E40E0121A140012B07D0022B07D014303B
:10157000002A026805D00A4304E00C30F8E7103076
:10158000F6E78A43026010BD0029818903D0012259
:101590005203114301E0024A11408181704700006B
:1015A000FFDF00000246128800200A4200D001201E
:1015B000704770B50A06530FCE060122F60E144688
:1015C0000025B440012B0ED0022B0ED0838A090ACD
:1015D000234000888A401040002B02D0002800D011
:1015E0000125284670BD8389F1E7038AEFE70000F3
:1015F00070B50446008A86B00D461D490840E9884A
:1016000001432182A1891B482A890140A8881043EF
:101610006A890A431043A081A08A17490840A98912
:101620000143A1826846FFF70DFD1448844202D0B1
:1016300013498C4201D1039800E0029829681922CD
:1016400089005043FEF72BFE06466421FEF727FE75
:101650000501280964214843301A00013230FEF7A1
:101660001EFE0007000F2843208106B070BD000059
:10167000FFCF0000F3E90000FFFC0000003801404C
:10168000005001408088C005C00D7047C905C90DD4
:10169000818070470024E4438AB020460321FFF78D
:1016A00073FCFFF7B1FD22487D21C9000068FEF7F9
:1016B000F6FD210A88420BD808401E4D401E686185
:1016C00003212046FFF760FC0020A8610720286165
:1016D000FFF7DEFBFFF770FBFFF716FBFEF7C2FE1E
:1016E000FFF7F0F8E12464022046FFF76DFE204684
:1016F000FFF7DEFE142110A0FFF7B6FE14221149F9
:101700006846FEF76BFD0F491422143105A8FEF759
:1017100065FD0021684600F034F80B4C0021606044
:1017200005A800F02EF8A06000F01EF8FEE700000B
:101730002400002000E000E0414C4C206F6B212190
:101740000D0A0000881F0008040000200146002048
:10175000842900D0C81C704710B5002800D1012092
:1017600000F07AFA002010BD10B500F08DFA0020CC
:1017700010BD10B500F044FB012801D000F006FBBD
:1017800010BD3EB5044608200D46205EFFF7DEFF83
:1017900002A901910090208A2B4682B221686068DC
:1017A00000F006FB012801D000203EBD02983EBD9E
:1017B000F8B5134C0F46666905462068001D00F019
:1017C000BDF9681C07D1002F05D021680D48091DFF
:1017D00000F0EDF9F8BD2068751945602168B54243
:1017E00004D2A068091D00F0CAF9F8BD6068091D9F
:1017F00000F0C5F9206B8542F7D22563F8BD0000E3
:10180000280000205C040020F8B5054600F0DCF953
:101810002A4C2069401C20612068294F002803D0F1
:10182000E069002827D02CE025602069012828D114
:10183000002614207043C01900F093F9761C072E7F
:10184000F7D31F488C3000F08CF91D48A03000F011
:1018500088F91B48B43000F084F91948C83000F00A
:1018600080F91748DC3000F07CF915488C30606056
:101870001430A06005E02068E96AC06A884200D898
:101880002560E06A401CE0626864E86AA1698842F9
:1018900000D9A06114214843C019291D00F087F91F
:1018A00000F09EF9E069002806D02068E96AC06A65
:1018B000884201D200F0C4F9F8BD000028000020E1
:1018C0008003002010B50446006B00F097F9204615
:1018D00000F094F910BD000001210E48C902420732
:1018E00005D0C01DC0080B4AC000821A891A0A4AD6
:1018F0000023411809C20839C908C900183A116003
:101900004B600B600B1A0AC093600120C007536044
:10191000D060704770040020740000200F4E104CFF
:101920003746C83F11E000F04FF9F068C568281D40
:1019300000F004F92069401E2061E068401EE0606C
:1019400000F04EF92846FFF7BDFFE0680028EAD115
:1019500038680128F9D900F073F9F6E74804002047
:1019600028000020FFB581B097000C9C0E460A9D10
:10197000A5223946206BFEF769FC206B3F1FC0197A
:10198000C708FF00780701D072B6FEE72218315C65
:1019900020321175315C002902D0401C1028F5D38B
:1019A0002046403000260090C670072D00D3062543
:1019B000E5622665201DE56400F0DEF8204618305B
:1019C00000F0DAF824610720401B6462A0616665BC
:1019D000009806763846049A019900F09FF8206036
:1019E0000B98002800D0046005B0F0BD30B5114957
:1019F00000E011460A688242FBD34B685C188442BF
:101A000003D1406818184860084643681C1894427F
:101A100009D1084C103C2468A24209D052689A1897
:101A200042600A6812680260814200D0086030BDDE
:101A30000460F9E77400002006484168096800293D
:101A400005D04168C968C9684968016370470021C9
:101A5000C943FAE72800002003480068401C72B61A
:101A600000D0FEE7FEE700007C000020F8B5054648
:101A7000002700F02FF9284E3068002801D1FFF729
:101A80002BFFF06805423FD1002D3DD00835680797
:101A900008D06807400F0821081A4519680701D0C7
:101AA00072B6FEE7002D2FD0706885422CD81A48F8
:101AB000103001460C6801E020460C466168A942DE
:101AC00002D221680029F7D131688C421CD0076806
:101AD0002168016060680837411B102908D9601926
:101AE000420701D072B6FEE741606560FFF77EFFF6
:101AF00061687068401A7060B268904200D2B0604D
:101B0000F0680143002003C400F0E8F9780701D031
:101B100072B6FEE73846F8BD6400002010B5012417
:101B2000031F24061C601B1F1960191F024B0B604A
:101B3000143940380A6010BD591A00084368826899
:101B400001699A60836842685A604A68824201D19A
:101B500082684A60002202610868401E08600868C6
:101B600070470146083100224160D243C160826063
:101B7000016100210160704700210161704730B5AB
:101B80000B685A1C02D00246083202E0026904E0E7
:101B90002246546825689D42FAD953684B60996083
:101BA0008A60516008610168491C016030BD42686B
:101BB0004A6093688B60936859609160086101681E
:101BC000491C01607047000072B604480168491C56
:101BD0000160BFF34F8FBFF36F8F70477C00002011
:101BE00005490868002804D0401E086000D162B68C
:101BF000704772B6FEE700007C00002070B5002838
:101C00001AD004460D4D083C6068E968084201D1CD
:101C100072B6FEE72268002A01D072B6FEE788435A
:101C2000606000F057F86068696840186860204696
:101C3000FFF7DCFE00F052F970BD000064000020E8
:101C40000120044900074860BFF34F8FBFF36F8F37
:101C50007047000000ED00E010B502000FD0094809
:101C6000806B002801D072B6FEE700F033F8002147
:101C70001046FFF79DFD00F031F9002801D1FFF774
:101C8000DFFF10BD280000201CB50E480024019085
:101C9000234680220CA100940D4800F089F8012809
:101CA00003D0401C0CD172B6FEE772B60021054885
:101CB000C943343801630121C161446100F03EF839
:101CC0001CBD00005C00002049444C4500000000A1
:101CD0001D1900080248816B491C81637047000090
:101CE0002800002010B51348816B002902D0012183
:101CF000416210BD0021416281690F4A02E0002962
:101D000015D0491E14234B43D358002BF7D014236E
:101D10004B439A18536814465B6808345360A342D7
:101D200001D15B685360DA680260816110BD72B6F0
:101D3000FEE70000280000208003002070B50F4857
:101D4000016AFF22120411430162016A1202114367
:101D500001620B4C00252561A5610A487D21C9005F
:101D60000068FEF79CFA401E60610720206106486B
:101D70000560FEF7F7F9002070BD000000ED00E0FF
:101D800000E000E0240000207C00002010B5FEF7F9
:101D9000FDF9044600F044F8002803D0012003496F
:101DA000000748602046FEF7F5F910BD00ED00E0A1
:101DB000FFB585B0164690000F9FFFF757FE050050
:101DC0001AD05C20FFF752FE040012D025630021D8
:101DD0000E9803910197009002943246089B069951
:101DE0000598FFF7BFFD2046FFF70EFD012009B063
:101DF000F0BD2846FFF702FF0020C043F7E70000D0
:101E00000648C169002904D0806B002803D0002057
:101E10007047012070470220704700002800002012
:101E2000F8B52C4C0027A06B002808D0206A401C75
:101E30002062606A002800D001273846F8BD666934
:101E4000761C66610ED160680068002801D072B609
:101E5000FEE76068A1686160A060A06A401CA062A3
:101E6000FFF7EAFD206B86420AD36068006800280D
:101E700010D06068C068C568686886420DD220636B
:101E800020681421C06A4843134908580128D0D952
:101E90000127CEE70020C043F1E7281DFFF74EFEE3
:101EA000A86A002803D028461830FFF747FEE86AE2
:101EB000A169884200D9A06114214843064940180D
:101EC000291DFFF774FEE86A2168C96A8842CCD3ED
:101ED0000127CAE72800002080030020F8B5284C1D
:101EE0000025A06B2E46002808D0FFF76DFEA06BE2
:101EF000401EA063A06B002802D03DE072B6FEE752
:101F00002169204F00291DD136E0F868C5682846B0
:101F10001830FFF713FE281DFFF710FEE86AA169CD
:101F2000884200D9A061142148431649B4394018A9
:101F3000291DFFF73CFEE86A2168C96A884201D37F
:101F40000120606238680028DFD1002D01D0FFF742
:101F500073FD256A002D09D00127FFF761FF0028D6
:101F600000D067626D1EF8D100202062606A0028F0
:101F700002D00126FFF764FEFFF732FE3046F8BDBF
:101F8000280000203404002000200008C90D0008AB
:101F90000000000000000000800000000820000891
:101FA000ED0D0008000000000000000080000000AF
:101FB00000000000000000000102030406070809F9
:101FC00000000000010203040102030406070809DF
:101FD00001020406080A0C102020202020202020C6
:101FE000010002000400060008000A000C001000B6
:101FF00020004000800000010001000100010001FC
:102000004C454431000000004C45443200000000C3
:1020100030200008000000208000000004010008BB
:10202000B0200008800000205012000020010008AD
:1020300000000000000000000000000000000000A0
:102040000000000000000000000000000000000090
:1020500000000000006CDC02000000000000000036
:102060000000000000000000000000000000000070
:102070000000000000000000000000000000000060
:102080000000000000000000000000000000000050
:102090000000000000000000000000000000000040
:1020A000000000000000000000000000AAAAAAAA88
:04000005080000C12E
:00000001FF
